{
  "transactions": [
    {
      "hash": "0xbbc638d46c261da337992ecb27f27dd8b5c5c80cd37801bc62e0f9df750f23e6",
      "transactionType": "CREATE",
      "contractName": "MockPriceOracle",
      "contractAddress": "0x7363f057f9b4c76404591a29da77b0c9858001b4",
      "function": null,
      "arguments": null,
      "transaction": {
        "from": "0x9a6586c563d56899d2d84a6b22729870126f62fb",
        "gas": "0x17f5c",
        "value": "0x0",
        "input": "0x6080604052348015600e575f5ffd5b50606680601a5f395ff3fe6080604052348015600e575f5ffd5b50600436106030575f3560e01c8063313ce56714603457806350d25bcd146048575b5f5ffd5b604051600881526020015b60405180910390f35b6040516305f5e1008152602001603f56fea164736f6c634300081b000a",
        "nonce": "0x26",
        "chainId": "0x3e6"
      },
      "additionalContracts": [],
      "isFixedGasLimit": false
    },
    {
      "hash": "0x93e21abedbe36734b9b85100e696c49684de48640ea6b635430eefcbdc4c2294",
      "transactionType": "CALL",
      "contractName": null,
      "contractAddress": "0xd215fdfe86e9836a80e2ab2c2df52dd0addaacde",
      "function": "setAssetSources(address[],address[])",
      "arguments": [
        "[0xDF1B2c6007D810FaCBD84686C6e27CE03C2C4056]",
        "[0x7363f057F9B4C76404591a29DA77B0c9858001B4]"
      ],
      "transaction": {
        "from": "0x9a6586c563d56899d2d84a6b22729870126f62fb",
        "to": "0xd215fdfe86e9836a80e2ab2c2df52dd0addaacde",
        "gas": "0xe06e",
        "value": "0x0",
        "input": "0xabfd5310000000000000000000000000000000000000000000000000000000000000004000000000000000000000000000000000000000000000000000000000000000800000000000000000000000000000000000000000000000000000000000000001000000000000000000000000df1b2c6007d810facbd84686c6e27ce03c2c405600000000000000000000000000000000000000000000000000000000000000010000000000000000000000007363f057f9b4c76404591a29da77b0c9858001b4",
        "nonce": "0x27",
        "chainId": "0x3e6"
      },
      "additionalContracts": [],
      "isFixedGasLimit": false
    }
  ],
  "receipts": [
    {
      "status": "0x1",
      "cumulativeGasUsed": "0x126e5",
      "logs": [],
      "logsBloom": "0x00000000000000000000000000000000000000000000000000000000000000000000000000000000000000000000000000000000000000000000000000000000000000000000000000000000000000000000000000000000000000000000000000000000000000000000000000000000000000000000000000000000000000000000000000000000000000000000000000000000000000000000000000000000000000000000000000000000000000000000000000000000000000000000000000000000000000000000000000000000000000000000000000000000000000000000000000000000000000000000000000000000000000000000000000000000",
      "type": "0x0",
      "transactionHash": "0xbbc638d46c261da337992ecb27f27dd8b5c5c80cd37801bc62e0f9df750f23e6",
      "transactionIndex": "0x0",
      "blockHash": "0xa9f4f3b720e502c71763a855a5ec0994a499ae19d11f1f16bffde6f718defc5b",
      "blockNumber": "0x20896d9",
      "gasUsed": "0x126e5",
      "effectiveGasPrice": "0x5f5e100",
      "from": "0x9a6586c563d56899d2d84a6b22729870126f62fb",
      "to": null,
      "contractAddress": "0x7363f057f9b4c76404591a29da77b0c9858001b4"
    },
    {
      "status": "0x1",
      "cumulativeGasUsed": "0x1c962",
      "logs": [
        {
          "address": "0xd215fdfe86e9836a80e2ab2c2df52dd0addaacde",
          "topics": [
            "0x22c5b7b2d8561d39f7f210b6b326a1aa69f15311163082308ac4877db6339dc1",
            "0x000000000000000000000000df1b2c6007d810facbd84686c6e27ce03c2c4056",
            "0x0000000000000000000000007363f057f9b4c76404591a29da77b0c9858001b4"
          ],
          "data": "0x",
          "blockHash": "0xa9f4f3b720e502c71763a855a5ec0994a499ae19d11f1f16bffde6f718defc5b",
          "blockNumber": "0x20896d9",
          "blockTimestamp": "0x68e23408",
          "transactionHash": "0x93e21abedbe36734b9b85100e696c49684de48640ea6b635430eefcbdc4c2294",
          "transactionIndex": "0x1",
          "logIndex": "0x0",
          "removed": false
        }
      ],
      "logsBloom": "0x00008000000000000000000000000000000000000000000080000000000000000000000000000000000000000001040000000000000000000000000000000000200000000000000000000000000000000000000000000000000200000002000000000000000000000000000000000000000000000000000000000000000000000000000010000000000000400000000000000002000000000000000000000000000000000000000000000000000000000000000000000000000000000000001000000000000000000000000000000000000000000000000000000000000000000000000000020000000000000000000000000000000000000000000000000000",
      "type": "0x0",
      "transactionHash": "0x93e21abedbe36734b9b85100e696c49684de48640ea6b635430eefcbdc4c2294",
      "transactionIndex": "0x1",
      "blockHash": "0xa9f4f3b720e502c71763a855a5ec0994a499ae19d11f1f16bffde6f718defc5b",
      "blockNumber": "0x20896d9",
      "gasUsed": "0xa27d",
      "effectiveGasPrice": "0x5f5e100",
      "from": "0x9a6586c563d56899d2d84a6b22729870126f62fb",
      "to": "0xd215fdfe86e9836a80e2ab2c2df52dd0addaacde",
      "contractAddress": null
    }
  ],
  "libraries": [],
  "pending": [],
  "returns": {},
  "timestamp": 1759654922,
  "chain": 998,
  "commit": "2387c7d"
}
