{
  "transactions": [
    {
      "hash": "0x663f5c89cffa0478249e4f2d4bc9ce5ed713193b239195c3e41ede8efcccb854",
      "transactionType": "CALL",
      "contractName": null,
      "contractAddress": "0x26a91a34a033d414edb461fdfba275e5dccbb972",
      "function": "initReserves((address,address,address,string,string,string,string,bytes,bytes)[])",
      "arguments": [
        "[(0x2DE2C76e35c2202eAf7e98db214618caC3eda1a3, 0xcDE6e1df7751Dc95B55014f2b678b0F563cc42dD, 0xDF1B2c6007D810FaCBD84686C6e27CE03C2C4056, Aave HyperEVM USDC, aHypUSDC, Aave HyperEVM Variable Debt USDC, variableDebtHypUSDC, 0x, 0x0000000000000000000000000000000000000000000000000000000000002328000000000000000000000000000000000000000000000000000000000000000000000000000000000000000000000000000000000000000000000000000001900000000000000000000000000000000000000000000000000000000000001770)]"
      ],
      "transaction": {
        "from": "0x9a6586c563d56899d2d84a6b22729870126f62fb",
        "to": "0x26a91a34a033d414edb461fdfba275e5dccbb972",
        "gas": "0x1ec6f1",
        "value": "0x0",
        "input": "0x6623c8040000000000000000000000000000000000000000000000000000000000000020000000000000000000000000000000000000000000000000000000000000000100000000000000000000000000000000000000000000000000000000000000200000000000000000000000002de2c76e35c2202eaf7e98db214618cac3eda1a3000000000000000000000000cde6e1df7751dc95b55014f2b678b0f563cc42dd000000000000000000000000df1b2c6007d810facbd84686c6e27ce03c2c40560000000000000000000000000000000000000000000000000000000000000120000000000000000000000000000000000000000000000000000000000000016000000000000000000000000000000000000000000000000000000000000001a000000000000000000000000000000000000000000000000000000000000001e00000000000000000000000000000000000000000000000000000000000000220000000000000000000000000000000000000000000000000000000000000024000000000000000000000000000000000000000000000000000000000000000124161766520487970657245564d205553444300000000000000000000000000000000000000000000000000000000000000000000000000000000000000000008614879705553444300000000000000000000000000000000000000000000000000000000000000000000000000000000000000000000000000000000000000204161766520487970657245564d205661726961626c652044656274205553444300000000000000000000000000000000000000000000000000000000000000137661726961626c65446562744879705553444300000000000000000000000000000000000000000000000000000000000000000000000000000000000000000000000000000000000000000000000000000000000000000000000000000000800000000000000000000000000000000000000000000000000000000000002328000000000000000000000000000000000000000000000000000000000000000000000000000000000000000000000000000000000000000000000000000001900000000000000000000000000000000000000000000000000000000000001770",
        "nonce": "0x1b",
        "chainId": "0x3e6"
      },
      "additionalContracts": [
        {
          "transactionType": "CREATE",
          "address": "0x052650f4173d7f1252e82b94ccd0ea0a21bb6a98",
          "initCode": "0x60a060405234801561000f575f5ffd5b506040516107ee3803806107ee83398101604081905261002e9161003f565b6001600160a01b031660805261006c565b5f6020828403121561004f575f5ffd5b81516001600160a01b0381168114610065575f5ffd5b9392505050565b6080516107476100a75f395f818161011e01528181610162015281816102140152818161034801528181610371015261048c01526107475ff3fe60806040526004361061004d575f3560e01c80633659cfe6146100645780634f1ef286146100835780635c60da1b14610096578063d1f57894146100c6578063f851a440146100d95761005c565b3661005c5761005a6100ed565b005b61005a6100ed565b34801561006f575f5ffd5b5061005a61007e366004610530565b610114565b61005a610091366004610550565b610158565b3480156100a1575f5ffd5b506100aa610209565b6040516001600160a01b03909116815260200160405180910390f35b61005a6100d43660046105e2565b610258565b3480156100e4575f5ffd5b506100aa61033d565b6100f5610393565b61011261010d5f51602061071b5f395f51905f525490565b61039b565b565b6001600160a01b037f00000000000000000000000000000000000000000000000000000000000000001633036101505761014d816103b9565b50565b61014d6100ed565b6001600160a01b037f00000000000000000000000000000000000000000000000000000000000000001633036101fc57610191836103b9565b5f836001600160a01b031683836040516101ac9291906106a6565b5f60405180830381855af49150503d805f81146101e4576040519150601f19603f3d011682016040523d82523d5f602084013e6101e9565b606091505b50509050806101f6575f5ffd5b50505050565b6102046100ed565b505050565b5f6001600160a01b037f000000000000000000000000000000000000000000000000000000000000000016330361024d57505f51602061071b5f395f51905f525490565b6102556100ed565b90565b5f61026e5f51602061071b5f395f51905f525490565b6001600160a01b031614610280575f5ffd5b6102ab60017f360894a13ba1a3210667c828492db98dca3e2076cc3735a920a3ca505d382bbd6106b5565b5f51602061071b5f395f51905f52146102c6576102c66106da565b6102cf826103f8565b805115610339575f826001600160a01b0316826040516102ef91906106ee565b5f60405180830381855af49150503d805f8114610327576040519150601f19603f3d011682016040523d82523d5f602084013e61032c565b606091505b5050905080610204575f5ffd5b5050565b5f6001600160a01b037f000000000000000000000000000000000000000000000000000000000000000016330361024d57507f000000000000000000000000000000000000000000000000000000000000000090565b610112610482565b365f5f375f5f365f845af43d5f5f3e8080156103b5573d5ff35b3d5ffd5b6103c2816103f8565b6040516001600160a01b038216907fbc7cd75a20ee27fd9adebab32041f755214dbc6bffa90cc0225b39da2e5c2d3b905f90a250565b803b6104715760405162461bcd60e51b815260206004820152603b60248201527f43616e6e6f742073657420612070726f787920696d706c656d656e746174696f60448201527f6e20746f2061206e6f6e2d636f6e74726163742061646472657373000000000060648201526084015b60405180910390fd5b5f51602061071b5f395f51905f5255565b6001600160a01b037f00000000000000000000000000000000000000000000000000000000000000001633036101125760405162461bcd60e51b815260206004820152603260248201527f43616e6e6f742063616c6c2066616c6c6261636b2066756e6374696f6e20667260448201527137b6903a343290383937bc3c9030b236b4b760711b6064820152608401610468565b80356001600160a01b038116811461052b575f5ffd5b919050565b5f60208284031215610540575f5ffd5b61054982610515565b9392505050565b5f5f5f60408486031215610562575f5ffd5b61056b84610515565b9250602084013567ffffffffffffffff811115610586575f5ffd5b8401601f81018613610596575f5ffd5b803567ffffffffffffffff8111156105ac575f5ffd5b8660208284010111156105bd575f5ffd5b939660209190910195509293505050565b634e487b7160e01b5f52604160045260245ffd5b5f5f604083850312156105f3575f5ffd5b6105fc83610515565b9150602083013567ffffffffffffffff811115610617575f5ffd5b8301601f81018513610627575f5ffd5b803567ffffffffffffffff811115610641576106416105ce565b604051601f8201601f19908116603f0116810167ffffffffffffffff81118282101715610670576106706105ce565b604052818152828201602001871015610687575f5ffd5b816020840160208301375f602083830101528093505050509250929050565b818382375f9101908152919050565b818103818111156106d457634e487b7160e01b5f52601160045260245ffd5b92915050565b634e487b7160e01b5f52600160045260245ffd5b5f82515f5b8181101561070d57602081860181015185830152016106f3565b505f92019182525091905056fe360894a13ba1a3210667c828492db98dca3e2076cc3735a920a3ca505d382bbca164736f6c634300081b000a00000000000000000000000026a91a34a033d414edb461fdfba275e5dccbb972"
        },
        {
          "transactionType": "CREATE",
          "address": "0x1dc1c40feb8b363b21b8815ef7377e929a33c199",
          "initCode": "0x60a060405234801561000f575f5ffd5b506040516107ee3803806107ee83398101604081905261002e9161003f565b6001600160a01b031660805261006c565b5f6020828403121561004f575f5ffd5b81516001600160a01b0381168114610065575f5ffd5b9392505050565b6080516107476100a75f395f818161011e01528181610162015281816102140152818161034801528181610371015261048c01526107475ff3fe60806040526004361061004d575f3560e01c80633659cfe6146100645780634f1ef286146100835780635c60da1b14610096578063d1f57894146100c6578063f851a440146100d95761005c565b3661005c5761005a6100ed565b005b61005a6100ed565b34801561006f575f5ffd5b5061005a61007e366004610530565b610114565b61005a610091366004610550565b610158565b3480156100a1575f5ffd5b506100aa610209565b6040516001600160a01b03909116815260200160405180910390f35b61005a6100d43660046105e2565b610258565b3480156100e4575f5ffd5b506100aa61033d565b6100f5610393565b61011261010d5f51602061071b5f395f51905f525490565b61039b565b565b6001600160a01b037f00000000000000000000000000000000000000000000000000000000000000001633036101505761014d816103b9565b50565b61014d6100ed565b6001600160a01b037f00000000000000000000000000000000000000000000000000000000000000001633036101fc57610191836103b9565b5f836001600160a01b031683836040516101ac9291906106a6565b5f60405180830381855af49150503d805f81146101e4576040519150601f19603f3d011682016040523d82523d5f602084013e6101e9565b606091505b50509050806101f6575f5ffd5b50505050565b6102046100ed565b505050565b5f6001600160a01b037f000000000000000000000000000000000000000000000000000000000000000016330361024d57505f51602061071b5f395f51905f525490565b6102556100ed565b90565b5f61026e5f51602061071b5f395f51905f525490565b6001600160a01b031614610280575f5ffd5b6102ab60017f360894a13ba1a3210667c828492db98dca3e2076cc3735a920a3ca505d382bbd6106b5565b5f51602061071b5f395f51905f52146102c6576102c66106da565b6102cf826103f8565b805115610339575f826001600160a01b0316826040516102ef91906106ee565b5f60405180830381855af49150503d805f8114610327576040519150601f19603f3d011682016040523d82523d5f602084013e61032c565b606091505b5050905080610204575f5ffd5b5050565b5f6001600160a01b037f000000000000000000000000000000000000000000000000000000000000000016330361024d57507f000000000000000000000000000000000000000000000000000000000000000090565b610112610482565b365f5f375f5f365f845af43d5f5f3e8080156103b5573d5ff35b3d5ffd5b6103c2816103f8565b6040516001600160a01b038216907fbc7cd75a20ee27fd9adebab32041f755214dbc6bffa90cc0225b39da2e5c2d3b905f90a250565b803b6104715760405162461bcd60e51b815260206004820152603b60248201527f43616e6e6f742073657420612070726f787920696d706c656d656e746174696f60448201527f6e20746f2061206e6f6e2d636f6e74726163742061646472657373000000000060648201526084015b60405180910390fd5b5f51602061071b5f395f51905f5255565b6001600160a01b037f00000000000000000000000000000000000000000000000000000000000000001633036101125760405162461bcd60e51b815260206004820152603260248201527f43616e6e6f742063616c6c2066616c6c6261636b2066756e6374696f6e20667260448201527137b6903a343290383937bc3c9030b236b4b760711b6064820152608401610468565b80356001600160a01b038116811461052b575f5ffd5b919050565b5f60208284031215610540575f5ffd5b61054982610515565b9392505050565b5f5f5f60408486031215610562575f5ffd5b61056b84610515565b9250602084013567ffffffffffffffff811115610586575f5ffd5b8401601f81018613610596575f5ffd5b803567ffffffffffffffff8111156105ac575f5ffd5b8660208284010111156105bd575f5ffd5b939660209190910195509293505050565b634e487b7160e01b5f52604160045260245ffd5b5f5f604083850312156105f3575f5ffd5b6105fc83610515565b9150602083013567ffffffffffffffff811115610617575f5ffd5b8301601f81018513610627575f5ffd5b803567ffffffffffffffff811115610641576106416105ce565b604051601f8201601f19908116603f0116810167ffffffffffffffff81118282101715610670576106706105ce565b604052818152828201602001871015610687575f5ffd5b816020840160208301375f602083830101528093505050509250929050565b818382375f9101908152919050565b818103818111156106d457634e487b7160e01b5f52601160045260245ffd5b92915050565b634e487b7160e01b5f52600160045260245ffd5b5f82515f5b8181101561070d57602081860181015185830152016106f3565b505f92019182525091905056fe360894a13ba1a3210667c828492db98dca3e2076cc3735a920a3ca505d382bbca164736f6c634300081b000a00000000000000000000000026a91a34a033d414edb461fdfba275e5dccbb972"
        }
      ],
      "isFixedGasLimit": false
    },
    {
      "hash": "0x93078dd1e95bf3db67190a19e39a8b190bbf07749c71ad04354b64aaf2b732d3",
      "transactionType": "CALL",
      "contractName": null,
      "contractAddress": "0x26a91a34a033d414edb461fdfba275e5dccbb972",
      "function": "configureReserveAsCollateral(address,uint256,uint256,uint256)",
      "arguments": [
        "0xDF1B2c6007D810FaCBD84686C6e27CE03C2C4056",
        "8000",
        "8500",
        "10500"
      ],
      "transaction": {
        "from": "0x9a6586c563d56899d2d84a6b22729870126f62fb",
        "to": "0x26a91a34a033d414edb461fdfba275e5dccbb972",
        "gas": "0x180b2",
        "value": "0x0",
        "input": "0x7c4e560b000000000000000000000000df1b2c6007d810facbd84686c6e27ce03c2c40560000000000000000000000000000000000000000000000000000000000001f4000000000000000000000000000000000000000000000000000000000000021340000000000000000000000000000000000000000000000000000000000002904",
        "nonce": "0x1c",
        "chainId": "0x3e6"
      },
      "additionalContracts": [],
      "isFixedGasLimit": false
    },
    {
      "hash": "0x673ac5a931d3573d0d113b6c5fc1807f419e74f61ce3a76be1bc40a2f765095b",
      "transactionType": "CALL",
      "contractName": null,
      "contractAddress": "0x26a91a34a033d414edb461fdfba275e5dccbb972",
      "function": "setReserveBorrowing(address,bool)",
      "arguments": ["0xDF1B2c6007D810FaCBD84686C6e27CE03C2C4056", "true"],
      "transaction": {
        "from": "0x9a6586c563d56899d2d84a6b22729870126f62fb",
        "to": "0x26a91a34a033d414edb461fdfba275e5dccbb972",
        "gas": "0x19019",
        "value": "0x0",
        "input": "0x682cf264000000000000000000000000df1b2c6007d810facbd84686c6e27ce03c2c40560000000000000000000000000000000000000000000000000000000000000001",
        "nonce": "0x1d",
        "chainId": "0x3e6"
      },
      "additionalContracts": [],
      "isFixedGasLimit": false
    },
    {
      "hash": "0x01e9ffef71a61f3c4396d654dfaebd73bac1eb5072b090a4ce60a7ecc64daa56",
      "transactionType": "CALL",
      "contractName": null,
      "contractAddress": "0x26a91a34a033d414edb461fdfba275e5dccbb972",
      "function": "setReserveFactor(address,uint256)",
      "arguments": ["0xDF1B2c6007D810FaCBD84686C6e27CE03C2C4056", "1000"],
      "transaction": {
        "from": "0x9a6586c563d56899d2d84a6b22729870126f62fb",
        "to": "0x26a91a34a033d414edb461fdfba275e5dccbb972",
        "gas": "0x3090c",
        "value": "0x0",
        "input": "0x4b4e6753000000000000000000000000df1b2c6007d810facbd84686c6e27ce03c2c405600000000000000000000000000000000000000000000000000000000000003e8",
        "nonce": "0x1e",
        "chainId": "0x3e6"
      },
      "additionalContracts": [],
      "isFixedGasLimit": false
    },
    {
      "hash": "0x9ac16c34eabf6544c7686473bd3921d9d0844c421f332f92dba10f37afb41a46",
      "transactionType": "CALL",
      "contractName": null,
      "contractAddress": "0x26a91a34a033d414edb461fdfba275e5dccbb972",
      "function": "setReserveActive(address,bool)",
      "arguments": ["0xDF1B2c6007D810FaCBD84686C6e27CE03C2C4056", "true"],
      "transaction": {
        "from": "0x9a6586c563d56899d2d84a6b22729870126f62fb",
        "to": "0x26a91a34a033d414edb461fdfba275e5dccbb972",
        "gas": "0x159b2",
        "value": "0x0",
        "input": "0xb736aaeb000000000000000000000000df1b2c6007d810facbd84686c6e27ce03c2c40560000000000000000000000000000000000000000000000000000000000000001",
        "nonce": "0x1f",
        "chainId": "0x3e6"
      },
      "additionalContracts": [],
      "isFixedGasLimit": false
    },
    {
      "hash": "0x7a559c8709a66f751a3e3a1c237c5ebcb1ea38c101da477b42705632c3f923f5",
      "transactionType": "CREATE",
      "contractName": "MockPriceOracle",
      "contractAddress": "0x4472bb3332500b46f4365ee295c43f3dd0c5b3df",
      "function": null,
      "arguments": null,
      "transaction": {
        "from": "0x9a6586c563d56899d2d84a6b22729870126f62fb",
        "gas": "0x17f5c",
        "value": "0x0",
        "input": "0x6080604052348015600e575f5ffd5b50606680601a5f395ff3fe6080604052348015600e575f5ffd5b50600436106030575f3560e01c8063313ce56714603457806350d25bcd146048575b5f5ffd5b604051600881526020015b60405180910390f35b6040516305f5e1008152602001603f56fea164736f6c634300081b000a",
        "nonce": "0x20",
        "chainId": "0x3e6"
      },
      "additionalContracts": [],
      "isFixedGasLimit": false
    },
    {
      "hash": "0xb60d2aacbe6b3cde4dc08bb9d46ed61a3be499e6d87ed997f14e9713dbc7a0d0",
      "transactionType": "CALL",
      "contractName": null,
      "contractAddress": "0xd215fdfe86e9836a80e2ab2c2df52dd0addaacde",
      "function": "setAssetSources(address[],address[])",
      "arguments": [
        "[0xDF1B2c6007D810FaCBD84686C6e27CE03C2C4056]",
        "[0x4472bB3332500B46f4365Ee295c43f3Dd0c5b3dF]"
      ],
      "transaction": {
        "from": "0x9a6586c563d56899d2d84a6b22729870126f62fb",
        "to": "0xd215fdfe86e9836a80e2ab2c2df52dd0addaacde",
        "gas": "0x14f54",
        "value": "0x0",
        "input": "0xabfd5310000000000000000000000000000000000000000000000000000000000000004000000000000000000000000000000000000000000000000000000000000000800000000000000000000000000000000000000000000000000000000000000001000000000000000000000000df1b2c6007d810facbd84686c6e27ce03c2c405600000000000000000000000000000000000000000000000000000000000000010000000000000000000000004472bb3332500b46f4365ee295c43f3dd0c5b3df",
        "nonce": "0x21",
        "chainId": "0x3e6"
      },
      "additionalContracts": [],
      "isFixedGasLimit": false
    }
  ],
  "receipts": [
    {
      "status": "0x1",
      "cumulativeGasUsed": "0x164837",
      "logs": [
        {
          "address": "0x052650f4173d7f1252e82b94ccd0ea0a21bb6a98",
          "topics": [
            "0xb19e051f8af41150ccccb3fc2c2d8d15f4a4cf434f32a559ba75fe73d6eea20b",
            "0x000000000000000000000000df1b2c6007d810facbd84686c6e27ce03c2c4056",
            "0x000000000000000000000000f4438c3554d0360ecde4358232821354e71c59e9"
          ],
          "data": "0x0000000000000000000000009a6586c563d56899d2d84a6b22729870126f62fb0000000000000000000000000000000000000000000000000000000000000000000000000000000000000000000000000000000000000000000000000000001200000000000000000000000000000000000000000000000000000000000000c00000000000000000000000000000000000000000000000000000000000000100000000000000000000000000000000000000000000000000000000000000014000000000000000000000000000000000000000000000000000000000000000124161766520487970657245564d20555344430000000000000000000000000000000000000000000000000000000000000000000000000000000000000000000861487970555344430000000000000000000000000000000000000000000000000000000000000000000000000000000000000000000000000000000000000000",
          "blockHash": "0xa336926d1dc6dca90148e8c01806742d1cc0bac1aca9a687a76c29027c118386",
          "blockNumber": "0x204bc35",
          "blockTimestamp": "0x68de6634",
          "transactionHash": "0x663f5c89cffa0478249e4f2d4bc9ce5ed713193b239195c3e41ede8efcccb854",
          "transactionIndex": "0x0",
          "logIndex": "0x0",
          "removed": false
        },
        {
          "address": "0x1dc1c40feb8b363b21b8815ef7377e929a33c199",
          "topics": [
            "0x40251fbfb6656cfa65a00d7879029fec1fad21d28fdcff2f4f68f52795b74f2c",
            "0x000000000000000000000000df1b2c6007d810facbd84686c6e27ce03c2c4056",
            "0x000000000000000000000000f4438c3554d0360ecde4358232821354e71c59e9"
          ],
          "data": "0x0000000000000000000000000000000000000000000000000000000000000000000000000000000000000000000000000000000000000000000000000000001200000000000000000000000000000000000000000000000000000000000000a000000000000000000000000000000000000000000000000000000000000000e0000000000000000000000000000000000000000000000000000000000000012000000000000000000000000000000000000000000000000000000000000000204161766520487970657245564d205661726961626c652044656274205553444300000000000000000000000000000000000000000000000000000000000000137661726961626c654465627448797055534443000000000000000000000000000000000000000000000000000000000000000000000000000000000000000000",
          "blockHash": "0xa336926d1dc6dca90148e8c01806742d1cc0bac1aca9a687a76c29027c118386",
          "blockNumber": "0x204bc35",
          "blockTimestamp": "0x68de6634",
          "transactionHash": "0x663f5c89cffa0478249e4f2d4bc9ce5ed713193b239195c3e41ede8efcccb854",
          "transactionIndex": "0x0",
          "logIndex": "0x1",
          "removed": false
        },
        {
          "address": "0xdba07e77c393662e0628a25642d511e60ca9f90a",
          "topics": [
            "0x5d123bea2036a4052274206f59d99350b9741e17da56ffae335d809b25ee0942",
            "0x000000000000000000000000df1b2c6007d810facbd84686c6e27ce03c2c4056"
          ],
          "data": "0x0000000000000000000000000000000000000000000000000000000000002328000000000000000000000000000000000000000000000000000000000000000000000000000000000000000000000000000000000000000000000000000001900000000000000000000000000000000000000000000000000000000000001770",
          "blockHash": "0xa336926d1dc6dca90148e8c01806742d1cc0bac1aca9a687a76c29027c118386",
          "blockNumber": "0x204bc35",
          "blockTimestamp": "0x68de6634",
          "transactionHash": "0x663f5c89cffa0478249e4f2d4bc9ce5ed713193b239195c3e41ede8efcccb854",
          "transactionIndex": "0x0",
          "logIndex": "0x2",
          "removed": false
        },
        {
          "address": "0x26a91a34a033d414edb461fdfba275e5dccbb972",
          "topics": [
            "0x3a0ca721fc364424566385a1aa271ed508cc2c0949c2272575fb3013a163a45f",
            "0x000000000000000000000000df1b2c6007d810facbd84686c6e27ce03c2c4056",
            "0x000000000000000000000000052650f4173d7f1252e82b94ccd0ea0a21bb6a98"
          ],
          "data": "0x00000000000000000000000000000000000000000000000000000000000000000000000000000000000000001dc1c40feb8b363b21b8815ef7377e929a33c199000000000000000000000000dba07e77c393662e0628a25642d511e60ca9f90a",
          "blockHash": "0xa336926d1dc6dca90148e8c01806742d1cc0bac1aca9a687a76c29027c118386",
          "blockNumber": "0x204bc35",
          "blockTimestamp": "0x68de6634",
          "transactionHash": "0x663f5c89cffa0478249e4f2d4bc9ce5ed713193b239195c3e41ede8efcccb854",
          "transactionIndex": "0x0",
          "logIndex": "0x3",
          "removed": false
        },
        {
          "address": "0x26a91a34a033d414edb461fdfba275e5dccbb972",
          "topics": [
            "0x1e608c2c753fede2f1f22fca4170277b53ebe5015e488a53414a8921446b7c40",
            "0x000000000000000000000000df1b2c6007d810facbd84686c6e27ce03c2c4056",
            "0x000000000000000000000000dba07e77c393662e0628a25642d511e60ca9f90a"
          ],
          "data": "0x000000000000000000000000000000000000000000000000000000000000002000000000000000000000000000000000000000000000000000000000000000800000000000000000000000000000000000000000000000000000000000002328000000000000000000000000000000000000000000000000000000000000000000000000000000000000000000000000000000000000000000000000000001900000000000000000000000000000000000000000000000000000000000001770",
          "blockHash": "0xa336926d1dc6dca90148e8c01806742d1cc0bac1aca9a687a76c29027c118386",
          "blockNumber": "0x204bc35",
          "blockTimestamp": "0x68de6634",
          "transactionHash": "0x663f5c89cffa0478249e4f2d4bc9ce5ed713193b239195c3e41ede8efcccb854",
          "transactionIndex": "0x0",
          "logIndex": "0x4",
          "removed": false
        }
      ],
      "logsBloom": "0x00000000001000000100000000500000000000400000000100200000008000800000000000000000000000000000050000000000000000404000000040000000000000000000000000000000000000000000000000000000000200000000000000000000000000000000004400000000000001000004000000080000000008000000000000000000000000000080000000000000000000000000000000004000000000002008000000000000000000000000000000000000090000000000001000000000002000000000200000000000000000000000000000001200000000000100000000020020000008000000000000000000000002000000000400080000",
      "type": "0x0",
      "transactionHash": "0x663f5c89cffa0478249e4f2d4bc9ce5ed713193b239195c3e41ede8efcccb854",
      "transactionIndex": "0x0",
      "blockHash": "0xa336926d1dc6dca90148e8c01806742d1cc0bac1aca9a687a76c29027c118386",
      "blockNumber": "0x204bc35",
      "gasUsed": "0x164837",
      "effectiveGasPrice": "0x5f5e100",
      "from": "0x9a6586c563d56899d2d84a6b22729870126f62fb",
      "to": "0x26a91a34a033d414edb461fdfba275e5dccbb972",
      "contractAddress": null
    },
    {
      "status": "0x1",
      "cumulativeGasUsed": "0x11684",
      "logs": [
        {
          "address": "0x26a91a34a033d414edb461fdfba275e5dccbb972",
          "topics": [
            "0x637febbda9275aea2e85c0ff690444c8d87eb2e8339bbede9715abcc89cb0995",
            "0x000000000000000000000000df1b2c6007d810facbd84686c6e27ce03c2c4056"
          ],
          "data": "0x0000000000000000000000000000000000000000000000000000000000001f4000000000000000000000000000000000000000000000000000000000000021340000000000000000000000000000000000000000000000000000000000002904",
          "blockHash": "0x1c87db7d7eb45b5506ec6a246a625e086073976be7ec0ed62bae274bed16bdba",
          "blockNumber": "0x204bc72",
          "blockTimestamp": "0x68de6670",
          "transactionHash": "0x93078dd1e95bf3db67190a19e39a8b190bbf07749c71ad04354b64aaf2b732d3",
          "transactionIndex": "0x0",
          "logIndex": "0x0",
          "removed": false
        }
      ],
      "logsBloom": "0x00000000000000000000000000400000000000000000000000000000008000000000000000000000000000000000040000000000000000000000000000000000000000000000000000000000000000000000000000000000000000000000000000000000040000000000000000000000000000000000000000000000000000000000008000000000000000000000000000000000000000000000000000000000000000000000000000000000000000000000000000000000000000000000001000000000000000000000000000000000000000000000000000000000000000000000000000020020000000000000000000000000000000000000000000000800",
      "type": "0x0",
      "transactionHash": "0x93078dd1e95bf3db67190a19e39a8b190bbf07749c71ad04354b64aaf2b732d3",
      "transactionIndex": "0x0",
      "blockHash": "0x1c87db7d7eb45b5506ec6a246a625e086073976be7ec0ed62bae274bed16bdba",
      "blockNumber": "0x204bc72",
      "gasUsed": "0x11684",
      "effectiveGasPrice": "0x5f5e100",
      "from": "0x9a6586c563d56899d2d84a6b22729870126f62fb",
      "to": "0x26a91a34a033d414edb461fdfba275e5dccbb972",
      "contractAddress": null
    },
    {
      "status": "0x1",
      "cumulativeGasUsed": "0x11193",
      "logs": [
        {
          "address": "0x26a91a34a033d414edb461fdfba275e5dccbb972",
          "topics": [
            "0x2443ba28e8d1d88d531a3d90b981816a4f3b3c7f1fd4085c6029e81d1b7a570d",
            "0x000000000000000000000000df1b2c6007d810facbd84686c6e27ce03c2c4056"
          ],
          "data": "0x0000000000000000000000000000000000000000000000000000000000000001",
          "blockHash": "0x25aa726f5f17c51351024f7f5eba8ca6b62470495e15b4e9cd7b6303fd22888c",
          "blockNumber": "0x204bcaf",
          "blockTimestamp": "0x68de66ac",
          "transactionHash": "0x673ac5a931d3573d0d113b6c5fc1807f419e74f61ce3a76be1bc40a2f765095b",
          "transactionIndex": "0x0",
          "logIndex": "0x0",
          "removed": false
        }
      ],
      "logsBloom": "0x00000000000000000000000000400000000000000000000000000000008000000000000000000000000000000000040000000000000000000000000000000000000000100000000000000000000000000000000008000800000000000000000000000000000000000000000000000000000000000000000000000000000000000000000000000000000000000000000000000000000000000000000000000000000000000000000000000000000000000000000000000000000000000000001000000000000000000000000000000000000000000000000000000000000000000000000000020020000000000000000000000000000000000000000000000000",
      "type": "0x0",
      "transactionHash": "0x673ac5a931d3573d0d113b6c5fc1807f419e74f61ce3a76be1bc40a2f765095b",
      "transactionIndex": "0x0",
      "blockHash": "0x25aa726f5f17c51351024f7f5eba8ca6b62470495e15b4e9cd7b6303fd22888c",
      "blockNumber": "0x204bcaf",
      "gasUsed": "0x11193",
      "effectiveGasPrice": "0x5f5e100",
      "from": "0x9a6586c563d56899d2d84a6b22729870126f62fb",
      "to": "0x26a91a34a033d414edb461fdfba275e5dccbb972",
      "contractAddress": null
    },
    {
      "status": "0x1",
      "cumulativeGasUsed": "0x21351",
      "logs": [
        {
          "address": "0x26a91a34a033d414edb461fdfba275e5dccbb972",
          "topics": [
            "0xb46e2b82b0c2cf3d7d9dece53635e165c53e0eaa7a44f904d61a2b7174826aef",
            "0x000000000000000000000000df1b2c6007d810facbd84686c6e27ce03c2c4056"
          ],
          "data": "0x000000000000000000000000000000000000000000000000000000000000000000000000000000000000000000000000000000000000000000000000000003e8",
          "blockHash": "0x42ef5a753936e15bf1d88dfe7c1e7206ab1cf5d72b3289445efb06d80c9b6030",
          "blockNumber": "0x204bcec",
          "blockTimestamp": "0x68de66e8",
          "transactionHash": "0x01e9ffef71a61f3c4396d654dfaebd73bac1eb5072b090a4ce60a7ecc64daa56",
          "transactionIndex": "0x0",
          "logIndex": "0x0",
          "removed": false
        },
        {
          "address": "0xf4438c3554d0360ecde4358232821354e71c59e9",
          "topics": [
            "0x804c9b842b2748a22bb64b345453a3de7ca54a6ca45ce00d415894979e22897a",
            "0x000000000000000000000000df1b2c6007d810facbd84686c6e27ce03c2c4056"
          ],
          "data": "0x0000000000000000000000000000000000000000000000000000000000000000000000000000000000000000000000000000000000000000000000000000000000000000000000000000000000000000000000000000000000000000000000000000000000000000000000000000000000000000033b2e3c9fd0803ce80000000000000000000000000000000000000000000000033b2e3c9fd0803ce8000000",
          "blockHash": "0x42ef5a753936e15bf1d88dfe7c1e7206ab1cf5d72b3289445efb06d80c9b6030",
          "blockNumber": "0x204bcec",
          "blockTimestamp": "0x68de66e8",
          "transactionHash": "0x01e9ffef71a61f3c4396d654dfaebd73bac1eb5072b090a4ce60a7ecc64daa56",
          "transactionIndex": "0x0",
          "logIndex": "0x1",
          "removed": false
        }
      ],
      "logsBloom": "0x00000000000000000000000000400000000000000000000000000000008008000000000000000000000000000100040000000000000000000000000000000000000000000000000000000000000000000000000000000000000000000000000000000000000000000000000000000000000000000000000000000000000000000000001000000000000000000000000000000000000000040000000000000000000000000000000000000000000000000000000000000000000000000000011000000000000000000000002000000000000000000000000000000000000020100000000000020020800000000000000000000000000000000000000000000000",
      "type": "0x0",
      "transactionHash": "0x01e9ffef71a61f3c4396d654dfaebd73bac1eb5072b090a4ce60a7ecc64daa56",
      "transactionIndex": "0x0",
      "blockHash": "0x42ef5a753936e15bf1d88dfe7c1e7206ab1cf5d72b3289445efb06d80c9b6030",
      "blockNumber": "0x204bcec",
      "gasUsed": "0x21351",
      "effectiveGasPrice": "0x5f5e100",
      "from": "0x9a6586c563d56899d2d84a6b22729870126f62fb",
      "to": "0x26a91a34a033d414edb461fdfba275e5dccbb972",
      "contractAddress": null
    },
    {
      "status": "0x1",
      "cumulativeGasUsed": "0xfa48",
      "logs": [
        {
          "address": "0x26a91a34a033d414edb461fdfba275e5dccbb972",
          "topics": [
            "0xc36c7d11ba01a5869d52aa4a3781939dab851cbc9ee6e7fdcedc7d58898a3f1e",
            "0x000000000000000000000000df1b2c6007d810facbd84686c6e27ce03c2c4056"
          ],
          "data": "0x0000000000000000000000000000000000000000000000000000000000000001",
          "blockHash": "0x75f8e9ccffc28b86d7527778bd865e1ab60a4dbcbc20c3922d3bfb3612134eae",
          "blockNumber": "0x204bd29",
          "blockTimestamp": "0x68de6724",
          "transactionHash": "0x9ac16c34eabf6544c7686473bd3921d9d0844c421f332f92dba10f37afb41a46",
          "transactionIndex": "0x0",
          "logIndex": "0x0",
          "removed": false
        }
      ],
      "logsBloom": "0x00000000000000000000000000400000000000000000000000000000008000000000000000000000000000000000040000000000000000000000000000010000000000000000000000000000000000000000000000000000000000080000000000000000000000000000000000000000000000000000000000000000000000000000000000000000000000000000000000000000000000000000000000000000000000000000000000000000000000000000000000000000000000000000001000000000000000000000000000000000000000000000000000000000000000020000000000020020000000000000000000000000000000000000000000000000",
      "type": "0x0",
      "transactionHash": "0x9ac16c34eabf6544c7686473bd3921d9d0844c421f332f92dba10f37afb41a46",
      "transactionIndex": "0x0",
      "blockHash": "0x75f8e9ccffc28b86d7527778bd865e1ab60a4dbcbc20c3922d3bfb3612134eae",
      "blockNumber": "0x204bd29",
      "gasUsed": "0xfa48",
      "effectiveGasPrice": "0x5f5e100",
      "from": "0x9a6586c563d56899d2d84a6b22729870126f62fb",
      "to": "0x26a91a34a033d414edb461fdfba275e5dccbb972",
      "contractAddress": null
    },
    {
      "status": "0x1",
      "cumulativeGasUsed": "0x126e5",
      "logs": [],
      "logsBloom": "0x00000000000000000000000000000000000000000000000000000000000000000000000000000000000000000000000000000000000000000000000000000000000000000000000000000000000000000000000000000000000000000000000000000000000000000000000000000000000000000000000000000000000000000000000000000000000000000000000000000000000000000000000000000000000000000000000000000000000000000000000000000000000000000000000000000000000000000000000000000000000000000000000000000000000000000000000000000000000000000000000000000000000000000000000000000000",
      "type": "0x0",
      "transactionHash": "0x7a559c8709a66f751a3e3a1c237c5ebcb1ea38c101da477b42705632c3f923f5",
      "transactionIndex": "0x0",
      "blockHash": "0xb446ef3f9d6d0148b0d9d38259ac4374dbb82a15a0ed7db3f7ac15404d199dd5",
      "blockNumber": "0x204bd66",
      "gasUsed": "0x126e5",
      "effectiveGasPrice": "0x5f5e100",
      "from": "0x9a6586c563d56899d2d84a6b22729870126f62fb",
      "to": null,
      "contractAddress": "0x4472bb3332500b46f4365ee295c43f3dd0c5b3df"
    },
    {
      "status": "0x1",
      "cumulativeGasUsed": "0xe549",
      "logs": [
        {
          "address": "0xd215fdfe86e9836a80e2ab2c2df52dd0addaacde",
          "topics": [
            "0x22c5b7b2d8561d39f7f210b6b326a1aa69f15311163082308ac4877db6339dc1",
            "0x000000000000000000000000df1b2c6007d810facbd84686c6e27ce03c2c4056",
            "0x0000000000000000000000004472bb3332500b46f4365ee295c43f3dd0c5b3df"
          ],
          "data": "0x",
          "blockHash": "0x5a240fe89a945270f8ef2b5c5fce71472b6117c6b7a755b2cb8bb737129126f1",
          "blockNumber": "0x204bda3",
          "blockTimestamp": "0x68de679c",
          "transactionHash": "0xb60d2aacbe6b3cde4dc08bb9d46ed61a3be499e6d87ed997f14e9713dbc7a0d0",
          "transactionIndex": "0x0",
          "logIndex": "0x0",
          "removed": false
        }
      ],
      "logsBloom": "0x00008000000000000000000000000000000000000000000000000000000000000000000000000000000000000001040000000000000000000004000000000000200000200000000000000000000000000000000000000000000000000002000000000000000000000000000000000000000000000000000000000000000000000000000000000000000000400000000000000002000000000000000000000000000000000000000000000000000000000000000000000000000000000000001000000000000008000000000000000000000000000000000000000000000000000000000000020000000000000000000000000000000000000000000000000000",
      "type": "0x0",
      "transactionHash": "0xb60d2aacbe6b3cde4dc08bb9d46ed61a3be499e6d87ed997f14e9713dbc7a0d0",
      "transactionIndex": "0x0",
      "blockHash": "0x5a240fe89a945270f8ef2b5c5fce71472b6117c6b7a755b2cb8bb737129126f1",
      "blockNumber": "0x204bda3",
      "gasUsed": "0xe549",
      "effectiveGasPrice": "0x5f5e100",
      "from": "0x9a6586c563d56899d2d84a6b22729870126f62fb",
      "to": "0xd215fdfe86e9836a80e2ab2c2df52dd0addaacde",
      "contractAddress": null
    }
  ],
  "libraries": [],
  "pending": [],
  "returns": {},
  "timestamp": 1759405983,
  "chain": 998,
  "commit": "94bb4d5"
}
