{
  "transactions": [
    {
      "hash": "0x0f8f4a7a8ae0628438d48d692bcd4d4e4db0600a93d254c326f82989e1702db0",
      "transactionType": "CALL",
      "contractName": null,
      "contractAddress": "0xdf1b2c6007d810facbd84686c6e27ce03c2c4056",
      "function": "approve(address,uint256)",
      "arguments": [
        "0xf4438C3554d0360ECDe4358232821354e71C59e9",
        "1000000000000000000000"
      ],
      "transaction": {
        "from": "0x9a6586c563d56899d2d84a6b22729870126f62fb",
        "to": "0xdf1b2c6007d810facbd84686c6e27ce03c2c4056",
        "gas": "0x107b8",
        "value": "0x0",
        "input": "0x095ea7b3000000000000000000000000f4438c3554d0360ecde4358232821354e71c59e900000000000000000000000000000000000000000000003635c9adc5dea00000",
        "nonce": "0x23",
        "chainId": "0x3e6"
      },
      "additionalContracts": [],
      "isFixedGasLimit": false
    },
    {
      "hash": "0x710add512189b377039fe7521c6a17a92a29bdc9221f88f6da287f81a70e94ac",
      "transactionType": "CALL",
      "contractName": null,
      "contractAddress": "0xf4438c3554d0360ecde4358232821354e71c59e9",
      "function": "supply(address,uint256,address,uint16)",
      "arguments": [
        "0xDF1B2c6007D810FaCBD84686C6e27CE03C2C4056",
        "1000000000000000000000",
        "0x9a6586c563D56899d2d84a6b22729870126f62Fb",
        "0"
      ],
      "transaction": {
        "from": "0x9a6586c563d56899d2d84a6b22729870126f62fb",
        "to": "0xf4438c3554d0360ecde4358232821354e71c59e9",
        "gas": "0x4881c",
        "value": "0x0",
        "input": "0x617ba037000000000000000000000000df1b2c6007d810facbd84686c6e27ce03c2c405600000000000000000000000000000000000000000000003635c9adc5dea000000000000000000000000000009a6586c563d56899d2d84a6b22729870126f62fb0000000000000000000000000000000000000000000000000000000000000000",
        "nonce": "0x24",
        "chainId": "0x3e6"
      },
      "additionalContracts": [],
      "isFixedGasLimit": false
    }
  ],
  "receipts": [
    {
      "status": "0x1",
      "cumulativeGasUsed": "0xb453",
      "logs": [
        {
          "address": "0xdf1b2c6007d810facbd84686c6e27ce03c2c4056",
          "topics": [
            "0x8c5be1e5ebec7d5bd14f71427d1e84f3dd0314c0f7b2291e5b200ac8c7c3b925",
            "0x0000000000000000000000009a6586c563d56899d2d84a6b22729870126f62fb",
            "0x000000000000000000000000f4438c3554d0360ecde4358232821354e71c59e9"
          ],
          "data": "0x00000000000000000000000000000000000000000000003635c9adc5dea00000",
          "blockHash": "0x3cc64dc6854b7dcd045a3712c07ec6ac4002543e489579ed6b34f971deb5a426",
          "blockNumber": "0x204c173",
          "blockTimestamp": "0x68de6b5c",
          "transactionHash": "0x0f8f4a7a8ae0628438d48d692bcd4d4e4db0600a93d254c326f82989e1702db0",
          "transactionIndex": "0x0",
          "logIndex": "0x0",
          "removed": false
        }
      ],
      "logsBloom": "0x00000000000000000000000000000000000000400000000000000000000000000000000000000000010000000000000000000000002000400000000000200000000000000000000000000000000000000000000000000000000000000000000000000000000000000000000000000000000000000000000000000200000000000000000000000000001000000000000000000000000000000000000000000000020000000008000000000000000000000200000000000000000000000000000000000000000000000000000000000000000000000000200000000000000000000010000000000000000000000000000000000000000000000000000000000000",
      "type": "0x0",
      "transactionHash": "0x0f8f4a7a8ae0628438d48d692bcd4d4e4db0600a93d254c326f82989e1702db0",
      "transactionIndex": "0x0",
      "blockHash": "0x3cc64dc6854b7dcd045a3712c07ec6ac4002543e489579ed6b34f971deb5a426",
      "blockNumber": "0x204c173",
      "gasUsed": "0xb453",
      "effectiveGasPrice": "0x5f5e100",
      "from": "0x9a6586c563d56899d2d84a6b22729870126f62fb",
      "to": "0xdf1b2c6007d810facbd84686c6e27ce03c2c4056",
      "contractAddress": null
    },
    {
      "status": "0x1",
      "cumulativeGasUsed": "0x347e7",
      "logs": [
        {
          "address": "0xf4438c3554d0360ecde4358232821354e71c59e9",
          "topics": [
            "0x804c9b842b2748a22bb64b345453a3de7ca54a6ca45ce00d415894979e22897a",
            "0x000000000000000000000000df1b2c6007d810facbd84686c6e27ce03c2c4056"
          ],
          "data": "0x0000000000000000000000000000000000000000000000000000000000000000000000000000000000000000000000000000000000000000000000000000000000000000000000000000000000000000000000000000000000000000000000000000000000000000000000000000000000000000033b2e3c9fd0803ce80000000000000000000000000000000000000000000000033b2e3c9fd0803ce8000000",
          "blockHash": "0x8ec1d36e59c48cae0a856031499f50141ae401668b6fc90dabe06c04aa135bc0",
          "blockNumber": "0x204c1b0",
          "blockTimestamp": "0x68de6b98",
          "transactionHash": "0x710add512189b377039fe7521c6a17a92a29bdc9221f88f6da287f81a70e94ac",
          "transactionIndex": "0x0",
          "logIndex": "0x0",
          "removed": false
        },
        {
          "address": "0xdf1b2c6007d810facbd84686c6e27ce03c2c4056",
          "topics": [
            "0xddf252ad1be2c89b69c2b068fc378daa952ba7f163c4a11628f55a4df523b3ef",
            "0x0000000000000000000000009a6586c563d56899d2d84a6b22729870126f62fb",
            "0x000000000000000000000000052650f4173d7f1252e82b94ccd0ea0a21bb6a98"
          ],
          "data": "0x00000000000000000000000000000000000000000000003635c9adc5dea00000",
          "blockHash": "0x8ec1d36e59c48cae0a856031499f50141ae401668b6fc90dabe06c04aa135bc0",
          "blockNumber": "0x204c1b0",
          "blockTimestamp": "0x68de6b98",
          "transactionHash": "0x710add512189b377039fe7521c6a17a92a29bdc9221f88f6da287f81a70e94ac",
          "transactionIndex": "0x0",
          "logIndex": "0x1",
          "removed": false
        },
        {
          "address": "0x052650f4173d7f1252e82b94ccd0ea0a21bb6a98",
          "topics": [
            "0xddf252ad1be2c89b69c2b068fc378daa952ba7f163c4a11628f55a4df523b3ef",
            "0x0000000000000000000000000000000000000000000000000000000000000000",
            "0x0000000000000000000000009a6586c563d56899d2d84a6b22729870126f62fb"
          ],
          "data": "0x00000000000000000000000000000000000000000000003635c9adc5dea00000",
          "blockHash": "0x8ec1d36e59c48cae0a856031499f50141ae401668b6fc90dabe06c04aa135bc0",
          "blockNumber": "0x204c1b0",
          "blockTimestamp": "0x68de6b98",
          "transactionHash": "0x710add512189b377039fe7521c6a17a92a29bdc9221f88f6da287f81a70e94ac",
          "transactionIndex": "0x0",
          "logIndex": "0x2",
          "removed": false
        },
        {
          "address": "0x052650f4173d7f1252e82b94ccd0ea0a21bb6a98",
          "topics": [
            "0x458f5fa412d0f69b08dd84872b0215675cc67bc1d5b6fd93300a1c3878b86196",
            "0x0000000000000000000000009a6586c563d56899d2d84a6b22729870126f62fb",
            "0x0000000000000000000000009a6586c563d56899d2d84a6b22729870126f62fb"
          ],
          "data": "0x00000000000000000000000000000000000000000000003635c9adc5dea0000000000000000000000000000000000000000000000000000000000000000000000000000000000000000000000000000000000000033b2e3c9fd0803ce8000000",
          "blockHash": "0x8ec1d36e59c48cae0a856031499f50141ae401668b6fc90dabe06c04aa135bc0",
          "blockNumber": "0x204c1b0",
          "blockTimestamp": "0x68de6b98",
          "transactionHash": "0x710add512189b377039fe7521c6a17a92a29bdc9221f88f6da287f81a70e94ac",
          "transactionIndex": "0x0",
          "logIndex": "0x3",
          "removed": false
        },
        {
          "address": "0xf4438c3554d0360ecde4358232821354e71c59e9",
          "topics": [
            "0x00058a56ea94653cdf4f152d227ace22d4c00ad99e2a43f58cb7d9e3feb295f2",
            "0x000000000000000000000000df1b2c6007d810facbd84686c6e27ce03c2c4056",
            "0x0000000000000000000000009a6586c563d56899d2d84a6b22729870126f62fb"
          ],
          "data": "0x",
          "blockHash": "0x8ec1d36e59c48cae0a856031499f50141ae401668b6fc90dabe06c04aa135bc0",
          "blockNumber": "0x204c1b0",
          "blockTimestamp": "0x68de6b98",
          "transactionHash": "0x710add512189b377039fe7521c6a17a92a29bdc9221f88f6da287f81a70e94ac",
          "transactionIndex": "0x0",
          "logIndex": "0x4",
          "removed": false
        },
        {
          "address": "0xf4438c3554d0360ecde4358232821354e71c59e9",
          "topics": [
            "0x2b627736bca15cd5381dcf80b0bf11fd197d01a037c52b927a881a10fb73ba61",
            "0x000000000000000000000000df1b2c6007d810facbd84686c6e27ce03c2c4056",
            "0x0000000000000000000000009a6586c563d56899d2d84a6b22729870126f62fb",
            "0x0000000000000000000000000000000000000000000000000000000000000000"
          ],
          "data": "0x0000000000000000000000009a6586c563d56899d2d84a6b22729870126f62fb00000000000000000000000000000000000000000000003635c9adc5dea00000",
          "blockHash": "0x8ec1d36e59c48cae0a856031499f50141ae401668b6fc90dabe06c04aa135bc0",
          "blockNumber": "0x204c1b0",
          "blockTimestamp": "0x68de6b98",
          "transactionHash": "0x710add512189b377039fe7521c6a17a92a29bdc9221f88f6da287f81a70e94ac",
          "transactionIndex": "0x0",
          "logIndex": "0x5",
          "removed": false
        }
      ],
      "logsBloom": "0x00000000000008000080000000000000000000000000000000000000000008000000000000000000010000000004040000000000002000000000000000000000000000000000000000000008000000000000000000000000000000040000000000000000020000000000000000000800000001000004000000000210000000000000000080000000001000000000000000000000000000000000000000000000000000000000000000000000000000000200000000000000010000000000011002000002002000000000202040000000000000000000200000000000000020100000000000020000800000000000000040000000000000000000400000080000",
      "type": "0x0",
      "transactionHash": "0x710add512189b377039fe7521c6a17a92a29bdc9221f88f6da287f81a70e94ac",
      "transactionIndex": "0x0",
      "blockHash": "0x8ec1d36e59c48cae0a856031499f50141ae401668b6fc90dabe06c04aa135bc0",
      "blockNumber": "0x204c1b0",
      "gasUsed": "0x347e7",
      "effectiveGasPrice": "0x5f5e100",
      "from": "0x9a6586c563d56899d2d84a6b22729870126f62fb",
      "to": "0xf4438c3554d0360ecde4358232821354e71c59e9",
      "contractAddress": null
    }
  ],
  "libraries": [],
  "pending": [],
  "returns": {},
  "timestamp": 1759407002,
  "chain": 998,
  "commit": "94bb4d5"
}
